S017000052435F4361725F536F6674776172652E7372656359
S113000012C019C12BC02AC029C028C027C026C0CD
S113001025C01FC123C022C021C020C0B9C01EC03A
S11300201DC01CC01BC011241FBECFE5D4E0DEBF21
S1130030CDBF10E0A0E6B0E0E8EAF3E002C005902E
S11300400D92A23BB107D9F720E0A2EBB0E001C0CA
S11300501D92AA3BB207E1F75AD1A4C1D1CF3D9A70
S113006086B18E6C86B9089585B108950F931F9358
S1130070CF93DF93182F092FD62FC42F36D08C2F70
S11300803DD006C032D041D08031E9F78C2F36D034
S11300903CD08831B9F7802F31D037D08832E9F796
S11300A0812F2CD032D08832E9F78D2F27D02DD054
S11300B08832E9F787EC90E00197F1F700C000007F
S11300C01AD0DF91CF911F910F910895BA9A089594
S11300D0B99A81E88FBD8EB581608EBD8FE390E0C3
S11300E09BBD8ABD0895039A089584EA86BF06B627
S11300F007FEFDCF089584E986BF089583B984E897
S113010086BF06B607FEFDCF089581B1887F0895A6
S1130110A82FA295AF70B0E0AC59BF4F9C91FB01E2
S113012090838F70E82FF0E0EC59FF4F8081FA0143
S1130130808308955D9BFECF8CB90895CF93DF93A0
S1130140EC018881882329F02196F4DF89918111BB
S1130150FCCFDF91CF91089590BD89B988E18AB928
S11301608EE880BD0895CF93DF9300D0CDB7DEB77E
S1130170AE014E5F5F4FBE016F5F7F4FC9DF898164
S1130180D9DF8A81D7DF0F900F90DF91CF91089547
S11301901F920F920FB60F9211242F933F934F93F8
S11301A05F936F937F938F939F93AF93BF93EF93DB
S11301B0FF9387B1807F87B980916000833029F4F1
S11301C0399A52DF8093610025C0823019F58091FD
S11301D0B2009091B300892B81F446DF80936300D1
S11301E081E090E09093B3008093B200389A10922B
S11301F0B5001092B400369A0DC036DF80936200C9
S11302001092B3001092B20081E090E09093B50098
S11302108093B400FF91EF91BF91AF919F918F9123
S11302207F916F915F914F913F912F910F900FBEEE
S11302300F901F9018951F920F920FB60F921124D2
S11302401092B9001092B8000F900FBE0F901F903B
S113025018951F920F920FB60F9211248F939F93AC
S113026086E982BF8091B8009091B9008F3F9105D3
S113027034F401969093B9008093B80006C08EEFD1
S113028090E09093B9008093B8009F918F910F9064
S11302900FBE0F901F90189583B7846083BF86E9C3
S11302A082BF89B7816089BF089585B7836085BFA0
S11302B08BB780648BBF8AB780648ABF08957894B3
S11302C0EBDFF3DFCCDE089581E087BBC09A83E3E4
S11302D090E042DF08DFFCDEF9DE0895879907C06D
S11302E0869905C081E080936000C29A0895879B37
S11302F005C083E080936000C2980895869B06C081
S1130300879904C082E080936000C29A0895DCDF7C
S1130310D6DF8AEA90E012DFC1E0D0E0DFDF80912F
S11303206000823019F0833051F136C01092B7006A
S11303301092B6008091B4009091B500892B61F1C0
S11303406091630070E0D093B700C093B60042EAB6
S113035050E080E090E08ADE6091620070E080917D
S1130360B6009091B7009C012F5F3F4F3093B700C8
S11303702093B60042EA50E079DE369A0DC06091CF
S1130380610070E0D093B700C093B60044EA50E037
S113039080E090E06BDE369A369A8AE0CBDE64DE4B
S10B03A0E2DEBCCFF894FFCFAC
S11303A801FFFFFF303132333435363738394142B3
S11303B84344454600504F54454E54494F4D4554C7
S11303C845522056414C55453A090042415454453A
S11303D852592053454E53453A0900435045204647
S11303E84545444241434B3A09000A544553540A8B
S10503F80000FF
S9030000FC
