S017000052435F4361725F536F6674776172652E7372656359
S113000012C0AEC02BC02AC029C028C027C026C039
S113001025C0D0C023C022C021C020C061C01EC0E2
S11300201DC01CC01BC011241FBECFE5D4E0DEBF21
S1130030CDBF10E0A0E6B0E0EAE3F2E002C0059034
S11300400D92A237B107D9F720E0A2E7B0E001C0D2
S11300501D92A637B207E1F7EBD0EDC0D1CF85B141
S11300600895C098C09A0895E199FECF9FBB8EBBB6
S11300706DBBE29AE19A0895A82FA295AF70B0E003
S1130080A05ABF4F9C91FB0190838F70E82FF0E042
S1130090E05AFF4F8081FA01808308955D9BFECF73
S11300A08CB9089590BD89B988E18AB98EE880BD7C
S11300B00895CF93DF9300D0CDB7DEB7AE014E5F86
S11300C05F4FBE016F5F7F4FD7DF8981E7DF8A8192
S11300D0E5DF8CE2E3DF0F900F90DF91CF9108957D
S11300E01F920F920FB60F9211242F933F934F93A9
S11300F05F936F937F938F939F93AF93BF93EF938C
S1130100FF938091740090917500811592409CF446
S1130110A6DF682F70E08091740090917500A4DFD1
S1130120809174009091750001969093750080936E
S11301307400369A04C01092750010927400FF91F6
S1130140EF91BF91AF919F918F917F916F915F914B
S11301504F913F912F910F900FBE0F901F901895C4
S11301601F920F920FB60F9211242F933F934F9328
S11301705F936F937F938F939F93AF93BF93EF930B
S1130180FF936FDF8091720094DF109273001092DE
S11301907200FF91EF91BF91AF919F918F917F91E9
S11301A06F915F914F913F912F910F900FBE0F90E0
S11301B01F9018951F920F920FB60F9211248F93D0
S11301C09F9386E982BF80917200909173008E3F65
S11301D0910534F40196909373008093720006C0E5
S11301E08EEF90E090937300809372009F918F91B3
S11301F00F900FBE0F901F90189583B7846083BF34
S113020086E982BF89B7816089BF089585B7836015
S113021085BF8BB780648BBF8AB780648ABF08951B
S113022081E087BB83E390E03DDFE7DFEFDF089504
S10D0230F7DF7894FFCFF894FFCFB6
S113023A303132333435363738394142434445460E
S105024A0000AE
S9030000FC
